{
  "_format": "hh-sol-artifact-1",
  "contractName": "ConsentRegistry",
  "sourceName": "contracts/ConsentRegistry.sol",
  "abi": [
    {
      "anonymous": false,
      "inputs": [
        {
          "indexed": true,
          "internalType": "uint256",
          "name": "requestId",
          "type": "uint256"
        },
        {
          "indexed": false,
          "internalType": "uint256",
          "name": "expiryTime",
          "type": "uint256"
        }
      ],
      "name": "ConsentGranted",
      "type": "event"
    },
    {
      "anonymous": false,
      "inputs": [
        {
          "indexed": true,
          "internalType": "uint256",
          "name": "requestId",
          "type": "uint256"
        }
      ],
      "name": "ConsentRevoked",
      "type": "event"
    },
    {
      "anonymous": false,
      "inputs": [
        {
          "indexed": true,
          "internalType": "uint256",
          "name": "requestId",
          "type": "uint256"
        },
        {
          "indexed": true,
          "internalType": "address",
          "name": "student",
          "type": "address"
        },
        {
          "indexed": true,
          "internalType": "address",
          "name": "requester",
          "type": "address"
        },
        {
          "indexed": false,
          "internalType": "string",
          "name": "fieldName",
          "type": "string"
        }
      ],
      "name": "RequestCreated",
      "type": "event"
    },
    {
      "inputs": [
        {
          "internalType": "address",
          "name": "_org",
          "type": "address"
        }
      ],
      "name": "getOrgRequests",
      "outputs": [
        {
          "components": [
            {
              "internalType": "uint256",
              "name": "id",
              "type": "uint256"
            },
            {
              "internalType": "address",
              "name": "student",
              "type": "address"
            },
            {
              "internalType": "address",
              "name": "requester",
              "type": "address"
            },
            {
              "internalType": "string",
              "name": "dataCid",
              "type": "string"
            },
            {
              "internalType": "string",
              "name": "fieldName",
              "type": "string"
            },
            {
              "internalType": "uint256",
              "name": "duration",
              "type": "uint256"
            },
            {
              "internalType": "uint256",
              "name": "expiryTime",
              "type": "uint256"
            },
            {
              "internalType": "bool",
              "name": "isGranted",
              "type": "bool"
            },
            {
              "internalType": "bool",
              "name": "isRevoked",
              "type": "bool"
            }
          ],
          "internalType": "struct ConsentRegistry.AccessRequest[]",
          "name": "",
          "type": "tuple[]"
        }
      ],
      "stateMutability": "view",
      "type": "function"
    },
    {
      "inputs": [
        {
          "internalType": "address",
          "name": "_student",
          "type": "address"
        }
      ],
      "name": "getStudentRequests",
      "outputs": [
        {
          "components": [
            {
              "internalType": "uint256",
              "name": "id",
              "type": "uint256"
            },
            {
              "internalType": "address",
              "name": "student",
              "type": "address"
            },
            {
              "internalType": "address",
              "name": "requester",
              "type": "address"
            },
            {
              "internalType": "string",
              "name": "dataCid",
              "type": "string"
            },
            {
              "internalType": "string",
              "name": "fieldName",
              "type": "string"
            },
            {
              "internalType": "uint256",
              "name": "duration",
              "type": "uint256"
            },
            {
              "internalType": "uint256",
              "name": "expiryTime",
              "type": "uint256"
            },
            {
              "internalType": "bool",
              "name": "isGranted",
              "type": "bool"
            },
            {
              "internalType": "bool",
              "name": "isRevoked",
              "type": "bool"
            }
          ],
          "internalType": "struct ConsentRegistry.AccessRequest[]",
          "name": "",
          "type": "tuple[]"
        }
      ],
      "stateMutability": "view",
      "type": "function"
    },
    {
      "inputs": [
        {
          "internalType": "uint256",
          "name": "_requestId",
          "type": "uint256"
        }
      ],
      "name": "grantConsent",
      "outputs": [],
      "stateMutability": "nonpayable",
      "type": "function"
    },
    {
      "inputs": [
        {
          "internalType": "uint256",
          "name": "_requestId",
          "type": "uint256"
        }
      ],
      "name": "isAccessValid",
      "outputs": [
        {
          "internalType": "bool",
          "name": "",
          "type": "bool"
        }
      ],
      "stateMutability": "view",
      "type": "function"
    },
    {
      "inputs": [
        {
          "internalType": "address",
          "name": "",
          "type": "address"
        },
        {
          "internalType": "uint256",
          "name": "",
          "type": "uint256"
        }
      ],
      "name": "orgRequests",
      "outputs": [
        {
          "internalType": "uint256",
          "name": "",
          "type": "uint256"
        }
      ],
      "stateMutability": "view",
      "type": "function"
    },
    {
      "inputs": [
        {
          "internalType": "address",
          "name": "_student",
          "type": "address"
        },
        {
          "internalType": "string",
          "name": "_dataCid",
          "type": "string"
        },
        {
          "internalType": "string",
          "name": "_fieldName",
          "type": "string"
        },
        {
          "internalType": "uint256",
          "name": "_duration",
          "type": "uint256"
        }
      ],
      "name": "requestAccess",
      "outputs": [],
      "stateMutability": "nonpayable",
      "type": "function"
    },
    {
      "inputs": [],
      "name": "requestCounter",
      "outputs": [
        {
          "internalType": "uint256",
          "name": "",
          "type": "uint256"
        }
      ],
      "stateMutability": "view",
      "type": "function"
    },
    {
      "inputs": [
        {
          "internalType": "uint256",
          "name": "",
          "type": "uint256"
        }
      ],
      "name": "requests",
      "outputs": [
        {
          "internalType": "uint256",
          "name": "id",
          "type": "uint256"
        },
        {
          "internalType": "address",
          "name": "student",
          "type": "address"
        },
        {
          "internalType": "address",
          "name": "requester",
          "type": "address"
        },
        {
          "internalType": "string",
          "name": "dataCid",
          "type": "string"
        },
        {
          "internalType": "string",
          "name": "fieldName",
          "type": "string"
        },
        {
          "internalType": "uint256",
          "name": "duration",
          "type": "uint256"
        },
        {
          "internalType": "uint256",
          "name": "expiryTime",
          "type": "uint256"
        },
        {
          "internalType": "bool",
          "name": "isGranted",
          "type": "bool"
        },
        {
          "internalType": "bool",
          "name": "isRevoked",
          "type": "bool"
        }
      ],
      "stateMutability": "view",
      "type": "function"
    },
    {
      "inputs": [
        {
          "internalType": "uint256",
          "name": "_requestId",
          "type": "uint256"
        }
      ],
      "name": "revokeConsent",
      "outputs": [],
      "stateMutability": "nonpayable",
      "type": "function"
    },
    {
      "inputs": [
        {
          "internalType": "address",
          "name": "",
          "type": "address"
        },
        {
          "internalType": "uint256",
          "name": "",
          "type": "uint256"
        }
      ],
      "name": "studentRequests",
      "outputs": [
        {
          "internalType": "uint256",
          "name": "",
          "type": "uint256"
        }
      ],
      "stateMutability": "view",
      "type": "function"
    }
  ],
  "bytecode": "0x608060405234801561001057600080fd5b50612030806100206000396000f3fe608060405234801561001057600080fd5b506004361061009e5760003560e01c8063573a994111610066578063573a9941146101575780637dc1703d1461018757806381d12c58146101b7578063973a814e146101ef578063b44910611461020d5761009e565b80630ca9e2a3146100a357806316a0042c146100bf5780632a26de85146100db5780632ce416f5146100f757806349b279ad14610127575b600080fd5b6100bd60048036038101906100b891906115f3565b61023d565b005b6100d960048036038101906100d49190611692565b61053d565b005b6100f560048036038101906100f09190611692565b610685565b005b610111600480360381019061010c91906116bf565b6107c0565b60405161011e919061170e565b60405180910390f35b610141600480360381019061013c9190611729565b6107f1565b60405161014e919061199c565b60405180910390f35b610171600480360381019061016c9190611692565b610b7d565b60405161017e91906119cd565b60405180910390f35b6101a1600480360381019061019c91906116bf565b610e0e565b6040516101ae919061170e565b60405180910390f35b6101d160048036038101906101cc9190611692565b610e3f565b6040516101e699989796959493929190611a41565b60405180910390f35b6101f7610ff7565b604051610204919061170e565b60405180910390f35b61022760048036038101906102229190611729565b610ffd565b604051610234919061199c565b60405180910390f35b60008081548092919061024f90611b0b565b9190505550600060405180610120016040528060005481526020018673ffffffffffffffffffffffffffffffffffffffff1681526020013373ffffffffffffffffffffffffffffffffffffffff168152602001858152602001848152602001838152602001600081526020016000151581526020016000151581525090508060016000805481526020019081526020016000206000820151816000015560208201518160010160006101000a81548173ffffffffffffffffffffffffffffffffffffffff021916908373ffffffffffffffffffffffffffffffffffffffff16021790555060408201518160020160006101000a81548173ffffffffffffffffffffffffffffffffffffffff021916908373ffffffffffffffffffffffffffffffffffffffff160217905550606082015181600301908161038f9190611d5f565b5060808201518160040190816103a59190611d5f565b5060a0820151816005015560c0820151816006015560e08201518160070160006101000a81548160ff0219169083151502179055506101008201518160070160016101000a81548160ff021916908315150217905550905050600260008673ffffffffffffffffffffffffffffffffffffffff1673ffffffffffffffffffffffffffffffffffffffff1681526020019081526020016000206000549080600181540180825580915050600190039060005260206000200160009091909190915055600360003373ffffffffffffffffffffffffffffffffffffffff1673ffffffffffffffffffffffffffffffffffffffff16815260200190815260200160002060005490806001815401808255809150506001900390600052602060002001600090919091909150553373ffffffffffffffffffffffffffffffffffffffff168573ffffffffffffffffffffffffffffffffffffffff166000547f5e216ccd5fa45a0096ee5dba7543186fc6e4491c6e0f5d17096ec941644937fd8660405161052e9190611e31565b60405180910390a45050505050565b60006001600083815260200190815260200160002090508060010160009054906101000a900473ffffffffffffffffffffffffffffffffffffffff1673ffffffffffffffffffffffffffffffffffffffff163373ffffffffffffffffffffffffffffffffffffffff16146105e6576040517f08c379a00000000000000000000000000000000000000000000000000000000081526004016105dd90611e9f565b60405180910390fd5b8060070160009054906101000a900460ff16610637576040517f08c379a000000000000000000000000000000000000000000000000000000000815260040161062e90611f0b565b60405180910390fd5b60018160070160016101000a81548160ff021916908315150217905550817f17ba03014e2d53e5983887aaf82c0688082a4e7010d71f88e948319fbb6fbe8c60405160405180910390a25050565b60006001600083815260200190815260200160002090508060010160009054906101000a900473ffffffffffffffffffffffffffffffffffffffff1673ffffffffffffffffffffffffffffffffffffffff163373ffffffffffffffffffffffffffffffffffffffff161461072e576040517f08c379a000000000000000000000000000000000000000000000000000000000815260040161072590611f77565b60405180910390fd5b60018160070160006101000a81548160ff02191690831515021790555080600501544261075b9190611f97565b816006018190555060008160070160016101000a81548160ff021916908315150217905550817f28e8714f8ec49d115d9b7f1f9aaba3b7bc06a757077ed1566955ddf62a4e56a082600601546040516107b4919061170e565b60405180910390a25050565b600260205281600052604060002081815481106107dc57600080fd5b90600052602060002001600091509150505481565b60606000600260008473ffffffffffffffffffffffffffffffffffffffff1673ffffffffffffffffffffffffffffffffffffffff16815260200190815260200160002080548060200260200160405190810160405280929190818152602001828054801561087e57602002820191906000526020600020905b81548152602001906001019080831161086a575b505050505090506000815167ffffffffffffffff8111156108a2576108a1611492565b5b6040519080825280602002602001820160405280156108db57816020015b6108c8611389565b8152602001906001900390816108c05790505b50905060005b8251811015610b72576001600084838151811061090157610900611fcb565b5b6020026020010151815260200190815260200160002060405180610120016040529081600082015481526020016001820160009054906101000a900473ffffffffffffffffffffffffffffffffffffffff1673ffffffffffffffffffffffffffffffffffffffff1673ffffffffffffffffffffffffffffffffffffffff1681526020016002820160009054906101000a900473ffffffffffffffffffffffffffffffffffffffff1673ffffffffffffffffffffffffffffffffffffffff1673ffffffffffffffffffffffffffffffffffffffff1681526020016003820180546109e990611b82565b80601f0160208091040260200160405190810160405280929190818152602001828054610a1590611b82565b8015610a625780601f10610a3757610100808354040283529160200191610a62565b820191906000526020600020905b815481529060010190602001808311610a4557829003601f168201915b50505050508152602001600482018054610a7b90611b82565b80601f0160208091040260200160405190810160405280929190818152602001828054610aa790611b82565b8015610af45780601f10610ac957610100808354040283529160200191610af4565b820191906000526020600020905b815481529060010190602001808311610ad757829003601f168201915b5050505050815260200160058201548152602001600682015481526020016007820160009054906101000a900460ff161515151581526020016007820160019054906101000a900460ff161515151581525050828281518110610b5a57610b59611fcb565b5b602002602001018190525080806001019150506108e1565b508092505050919050565b6000806001600084815260200190815260200160002060405180610120016040529081600082015481526020016001820160009054906101000a900473ffffffffffffffffffffffffffffffffffffffff1673ffffffffffffffffffffffffffffffffffffffff1673ffffffffffffffffffffffffffffffffffffffff1681526020016002820160009054906101000a900473ffffffffffffffffffffffffffffffffffffffff1673ffffffffffffffffffffffffffffffffffffffff1673ffffffffffffffffffffffffffffffffffffffff168152602001600382018054610c6590611b82565b80601f0160208091040260200160405190810160405280929190818152602001828054610c9190611b82565b8015610cde5780601f10610cb357610100808354040283529160200191610cde565b820191906000526020600020905b815481529060010190602001808311610cc157829003601f168201915b50505050508152602001600482018054610cf790611b82565b80601f0160208091040260200160405190810160405280929190818152602001828054610d2390611b82565b8015610d705780601f10610d4557610100808354040283529160200191610d70565b820191906000526020600020905b815481529060010190602001808311610d5357829003601f168201915b5050505050815260200160058201548152602001600682015481526020016007820160009054906101000a900460ff161515151581526020016007820160019054906101000a900460ff16151515158152505090508060e00151610dd8576000915050610e09565b80610100015115610ded576000915050610e09565b8060c00151421115610e03576000915050610e09565b60019150505b919050565b60036020528160005260406000208181548110610e2a57600080fd5b90600052602060002001600091509150505481565b60016020528060005260406000206000915090508060000154908060010160009054906101000a900473ffffffffffffffffffffffffffffffffffffffff16908060020160009054906101000a900473ffffffffffffffffffffffffffffffffffffffff1690806003018054610eb490611b82565b80601f0160208091040260200160405190810160405280929190818152602001828054610ee090611b82565b8015610f2d5780601f10610f0257610100808354040283529160200191610f2d565b820191906000526020600020905b815481529060010190602001808311610f1057829003601f168201915b505050505090806004018054610f4290611b82565b80601f0160208091040260200160405190810160405280929190818152602001828054610f6e90611b82565b8015610fbb5780601f10610f9057610100808354040283529160200191610fbb565b820191906000526020600020905b815481529060010190602001808311610f9e57829003601f168201915b5050505050908060050154908060060154908060070160009054906101000a900460ff16908060070160019054906101000a900460ff16905089565b60005481565b60606000600360008473ffffffffffffffffffffffffffffffffffffffff1673ffffffffffffffffffffffffffffffffffffffff16815260200190815260200160002080548060200260200160405190810160405280929190818152602001828054801561108a57602002820191906000526020600020905b815481526020019060010190808311611076575b505050505090506000815167ffffffffffffffff8111156110ae576110ad611492565b5b6040519080825280602002602001820160405280156110e757816020015b6110d4611389565b8152602001906001900390816110cc5790505b50905060005b825181101561137e576001600084838151811061110d5761110c611fcb565b5b6020026020010151815260200190815260200160002060405180610120016040529081600082015481526020016001820160009054906101000a900473ffffffffffffffffffffffffffffffffffffffff1673ffffffffffffffffffffffffffffffffffffffff1673ffffffffffffffffffffffffffffffffffffffff1681526020016002820160009054906101000a900473ffffffffffffffffffffffffffffffffffffffff1673ffffffffffffffffffffffffffffffffffffffff1673ffffffffffffffffffffffffffffffffffffffff1681526020016003820180546111f590611b82565b80601f016020809104026020016040519081016040528092919081815260200182805461122190611b82565b801561126e5780601f106112435761010080835404028352916020019161126e565b820191906000526020600020905b81548152906001019060200180831161125157829003601f168201915b5050505050815260200160048201805461128790611b82565b80601f01602080910402602001604051908101604052809291908181526020018280546112b390611b82565b80156113005780601f106112d557610100808354040283529160200191611300565b820191906000526020600020905b8154815290600101906020018083116112e357829003601f168201915b5050505050815260200160058201548152602001600682015481526020016007820160009054906101000a900460ff161515151581526020016007820160019054906101000a900460ff16151515158152505082828151811061136657611365611fcb565b5b602002602001018190525080806001019150506110ed565b508092505050919050565b60405180610120016040528060008152602001600073ffffffffffffffffffffffffffffffffffffffff168152602001600073ffffffffffffffffffffffffffffffffffffffff168152602001606081526020016060815260200160008152602001600081526020016000151581526020016000151581525090565b6000604051905090565b600080fd5b600080fd5b600073ffffffffffffffffffffffffffffffffffffffff82169050919050565b600061144482611419565b9050919050565b61145481611439565b811461145f57600080fd5b50565b6000813590506114718161144b565b92915050565b600080fd5b600080fd5b6000601f19601f8301169050919050565b7f4e487b7100000000000000000000000000000000000000000000000000000000600052604160045260246000fd5b6114ca82611481565b810181811067ffffffffffffffff821117156114e9576114e8611492565b5b80604052505050565b60006114fc611405565b905061150882826114c1565b919050565b600067ffffffffffffffff82111561152857611527611492565b5b61153182611481565b9050602081019050919050565b82818337600083830152505050565b600061156061155b8461150d565b6114f2565b90508281526020810184848401111561157c5761157b61147c565b5b61158784828561153e565b509392505050565b600082601f8301126115a4576115a3611477565b5b81356115b484826020860161154d565b91505092915050565b6000819050919050565b6115d0816115bd565b81146115db57600080fd5b50565b6000813590506115ed816115c7565b92915050565b6000806000806080858703121561160d5761160c61140f565b5b600061161b87828801611462565b945050602085013567ffffffffffffffff81111561163c5761163b611414565b5b6116488782880161158f565b935050604085013567ffffffffffffffff81111561166957611668611414565b5b6116758782880161158f565b9250506060611686878288016115de565b91505092959194509250565b6000602082840312156116a8576116a761140f565b5b60006116b6848285016115de565b91505092915050565b600080604083850312156116d6576116d561140f565b5b60006116e485828601611462565b92505060206116f5858286016115de565b9150509250929050565b611708816115bd565b82525050565b600060208201905061172360008301846116ff565b92915050565b60006020828403121561173f5761173e61140f565b5b600061174d84828501611462565b91505092915050565b600081519050919050565b600082825260208201905092915050565b6000819050602082019050919050565b61178b816115bd565b82525050565b61179a81611439565b82525050565b600081519050919050565b600082825260208201905092915050565b60005b838110156117da5780820151818401526020810190506117bf565b60008484015250505050565b60006117f1826117a0565b6117fb81856117ab565b935061180b8185602086016117bc565b61181481611481565b840191505092915050565b60008115159050919050565b6118348161181f565b82525050565b6000610120830160008301516118536000860182611782565b5060208301516118666020860182611791565b5060408301516118796040860182611791565b506060830151848203606086015261189182826117e6565b915050608083015184820360808601526118ab82826117e6565b91505060a08301516118c060a0860182611782565b5060c08301516118d360c0860182611782565b5060e08301516118e660e086018261182b565b506101008301516118fb61010086018261182b565b508091505092915050565b6000611912838361183a565b905092915050565b6000602082019050919050565b600061193282611756565b61193c8185611761565b93508360208202850161194e85611772565b8060005b8581101561198a578484038952815161196b8582611906565b94506119768361191a565b925060208a01995050600181019050611952565b50829750879550505050505092915050565b600060208201905081810360008301526119b68184611927565b905092915050565b6119c78161181f565b82525050565b60006020820190506119e260008301846119be565b92915050565b6119f181611439565b82525050565b600082825260208201905092915050565b6000611a13826117a0565b611a1d81856119f7565b9350611a2d8185602086016117bc565b611a3681611481565b840191505092915050565b600061012082019050611a57600083018c6116ff565b611a64602083018b6119e8565b611a71604083018a6119e8565b8181036060830152611a838189611a08565b90508181036080830152611a978188611a08565b9050611aa660a08301876116ff565b611ab360c08301866116ff565b611ac060e08301856119be565b611ace6101008301846119be565b9a9950505050505050505050565b7f4e487b7100000000000000000000000000000000000000000000000000000000600052601160045260246000fd5b6000611b16826115bd565b91507fffffffffffffffffffffffffffffffffffffffffffffffffffffffffffffffff8203611b4857611b47611adc565b5b600182019050919050565b7f4e487b7100000000000000000000000000000000000000000000000000000000600052602260045260246000fd5b60006002820490506001821680611b9a57607f821691505b602082108103611bad57611bac611b53565b5b50919050565b60008190508160005260206000209050919050565b60006020601f8301049050919050565b600082821b905092915050565b600060088302611c157fffffffffffffffffffffffffffffffffffffffffffffffffffffffffffffffff82611bd8565b611c1f8683611bd8565b95508019841693508086168417925050509392505050565b6000819050919050565b6000611c5c611c57611c52846115bd565b611c37565b6115bd565b9050919050565b6000819050919050565b611c7683611c41565b611c8a611c8282611c63565b848454611be5565b825550505050565b600090565b611c9f611c92565b611caa818484611c6d565b505050565b5b81811015611cce57611cc3600082611c97565b600181019050611cb0565b5050565b601f821115611d1357611ce481611bb3565b611ced84611bc8565b81016020851015611cfc578190505b611d10611d0885611bc8565b830182611caf565b50505b505050565b600082821c905092915050565b6000611d3660001984600802611d18565b1980831691505092915050565b6000611d4f8383611d25565b9150826002028217905092915050565b611d68826117a0565b67ffffffffffffffff811115611d8157611d80611492565b5b611d8b8254611b82565b611d96828285611cd2565b600060209050601f831160018114611dc95760008415611db7578287015190505b611dc18582611d43565b865550611e29565b601f198416611dd786611bb3565b60005b82811015611dff57848901518255600182019150602085019450602081019050611dda565b86831015611e1c5784890151611e18601f891682611d25565b8355505b6001600288020188555050505b505050505050565b60006020820190508181036000830152611e4b8184611a08565b905092915050565b7f4f6e6c792073747564656e742063616e207265766f6b65000000000000000000600082015250565b6000611e896017836119f7565b9150611e9482611e53565b602082019050919050565b60006020820190508181036000830152611eb881611e7c565b9050919050565b7f436f6e73656e74206e6f74206772616e74656420796574000000000000000000600082015250565b6000611ef56017836119f7565b9150611f0082611ebf565b602082019050919050565b60006020820190508181036000830152611f2481611ee8565b9050919050565b7f4f6e6c792073747564656e742063616e206772616e7420636f6e73656e740000600082015250565b6000611f61601e836119f7565b9150611f6c82611f2b565b602082019050919050565b60006020820190508181036000830152611f9081611f54565b9050919050565b6000611fa2826115bd565b9150611fad836115bd565b9250828201905080821115611fc557611fc4611adc565b5b92915050565b7f4e487b7100000000000000000000000000000000000000000000000000000000600052603260045260246000fdfea2646970667358221220d2ed91bb0a7814d18d1009a7daa7e12fd7d3987e304eb2b006ce50050477e6cc64736f6c63430008180033",
  "linkReferences": {},
  "deployedLinkReferences": {}
}